:020000040800F2
:1000000098080020CD010008D5010008D70100089C
:10001000D9010008DB010008DD0100080000000034
:10002000000000000000000000000000DF010008E8
:10003000E101000800000000E3010008E5010008FC
:10004000E7010008E7010008E7010008E7010008F0
:10005000E7010008E7010008E7010008E7010008E0
:10006000E7010008E7010008E7010008E7010008D0
:10007000E7010008E7010008E7010008E7010008C0
:10008000E7010008E7010008E7010008E7010008B0
:10009000E7010008E7010008E7010008E7010008A0
:1000A000E7010008E7010008E7010008E701000890
:1000B000E7010008E7010008A5080008E7010008BB
:1000C000E7010008E7010008E7010008E701000870
:1000D000E7010008D9090008E7010008E701000866
:1000E000E7010008E7010008E7010008E701000850
:1000F000E7010008E7010008E7010008E701000840
:10010000E7010008E7010008E7010008E70100082F
:10011000E7010008E7010008E7010008E70100081F
:10012000E7010008E7010008E7010008E70100080F
:1001300000F002F800F03AF80AA090E8000C8244BF
:100140008344AAF10107DA4501D100F02FF8AFF29C
:10015000090EBAE80F0013F0010F18BFFB1A43F0A5
:1001600001031847881D0000A81D0000103A24BF95
:1001700078C878C1FAD8520724BF30C830C144BF0C
:1001800004680C607047000000230024002500264E
:10019000103A28BF78C1FBD8520728BF30C148BFEA
:1001A0000B6070471FB51FBD10B510BD00F012F9F0
:1001B0001146FFF7F7FF01F06FFA00F030F903B4D2
:1001C000FFF7F2FF03BC00F0F7F800000948804792
:1001D00009480047FEE7FEE7FEE7FEE7FEE7FEE729
:1001E000FEE7FEE7FEE7FEE704480549054A064B41
:1001F00070470000450800083101000898020020FF
:100200009808002098040020980400200EB50546A8
:1002100014460E4613A000F08CF8284600F089F82A
:1002200016A000F086F8304600F083F815A000F024
:1002300080F800218DF80B100A210DF10A008DF8CD
:100240000A1008E094FBF1F201FB124294FBF1F476
:10025000303200F8012D002CF4DC00F06AF800F0D8
:100260005DF800002A2A2A20617373657274696F31
:100270006E206661696C65643A2000002C20666916
:100280006C6520002C206C696E652000032A40F20A
:10029000308010F0030C00F0158011F8013BBCF128
:1002A000020F624498BF11F801CB00F8013B38BF40
:1002B00011F8013BA2F1040298BF00F801CB38BF4E
:1002C00000F8013B11F0030300F03D80083AC0F054
:1002D000088051F8043B083A51F804CBA0E8081014
:1002E000F5E7121D5CBF51F8043B40F8043BAFF347
:1002F0000080D20724BF11F8013B11F801CB48BFA1
:1003000011F8012B24BF00F8013B00F801CB48BFD6
:1003100000F8012B704770477047704710B50020F8
:1003200000F050F8FFF740FFBDE81040012000F05A
:1003300043B810B5044602E0641C00F036F820789B
:100340000028F9D110BD10B5203AC0F00B80B1E8FB
:100350001850203AA0E81850B1E81850A0E81850FA
:10036000BFF4F5AF5FEA027C24BFB1E81850A0E803
:10037000185044BF18C918C0BDE810405FEA827C1D
:1003800024BF51F8043B40F8043B08BF7047D20734
:1003900028BF31F8023B48BF11F8012B28BF20F8D5
:1003A000023B48BF00F8012B704708B569468DF83D
:1003B00000000320ABBE08BD01491820ABBEFEE71C
:1003C0002600020010B500F039F8BDE8104000F03A
:1003D0002FB87047754600F049F8AE4605006946EB
:1003E000534620F00700854618B020B5FFF7FCFE05
:1003F000BDE820404FF000064FF000074FF0000826
:100400004FF0000B21F00701AC46ACE8C009ACE8A6
:10041000C009ACE8C009ACE8C0098D46704710B50A
:100420000446AFF300802046BDE81040FFF7C7BE8A
:10043000002801D0FFF7C0BF7047000010B50021B1
:1004400002A000F017F8012010BD000053494741F9
:100450004252543A2041626E6F726D616C20746535
:10046000726D696E6174696F6E00000000487047BC
:100470003802002070B505460C460A2000E06D1CCD
:10048000FFF793FF35B128780028F8D102E0641C0B
:10049000FFF78BFF14B120780028F8D1BDE8704039
:1004A0000A20FFF782BF2DE9F04102460025002611
:1004B000002000230024002791F803C00CF00F0552
:1004C00091F803C00CF0100CBCF1000F03D091F8B0
:1004D00002C04CEA050591F800C0BCF1000F31D014
:1004E000146800202BE04FF0010C0CFA00F3B1F877
:1004F00000C00CEA03069E4220D183004FF00F0C8F
:100500000CFA03F7BC4305FA03FC4CEA040491F827
:1005100003C0BCF1280F06D14FF0010C0CFA00FC0F
:10052000C2F814C00AE091F803C0BCF1480F05D12D
:100530004FF0010C0CFA00FCC2F810C0401C082857
:10054000D1D31460B1F800C0BCF1FF0F34DD5468A2
:1005500000202EE000F1080C4FF0010808FA0CF31F
:10056000B1F800C00CEA03069E4221D183004FF08F
:100570000F0C0CFA03F7BC4305FA03FC4CEA040425
:1005800091F803C0BCF1280F05D100F1080C08FA5E
:100590000CF8C2F8148091F803C0BCF1480F07D1E1
:1005A00000F1080C4FF0010808FA0CF8C2F81080AE
:1005B000401C0828CED35460BDE8F08141617047EB
:1005C0000161704770B5002100230F22C47804B385
:1005D000154C246804F4E064C4F5E064210AC1F118
:1005E0000403CA40447804FA03F184781440214398
:1005F00009010E4C0678A155047804F01F0501246A
:10060000AC4005786D11AD0005F1E025C5F800415D
:1006100009E0047804F01F050124AC40044D06787D
:10062000761145F8264070BD0CED00E000E400E0D6
:1006300080E100E002490143024A11607047000076
:100640000000FA050CED00E029B1064AD269024328
:10065000044BDA6104E0034AD2698243014BDA6158
:10066000704700000010024029B1064A9269024317
:10067000044B9A6104E0034A92698243014B9A61F8
:10068000704700000010024030B500210022002415
:1006900000232D4D6D6805F00C0121B1042905D012
:1006A000082923D105E0294D056022E0274D05608A
:1006B0001FE0254D6D6805F47012234D6D6805F43B
:1006C0008034022505EB92421CB9214D554305604B
:1006D0000BE01D4D6D6805F400351DB11C4D5543F3
:1006E000056002E0194D5543056002E0174D0560B5
:1006F00000BF00BF144D6D6805F0F0010909154DEC
:100700006B5C0568DD4045600F4D6D6805F4E06188
:10071000090A104D6B5C4568DD4085600A4D6D68C7
:1007200005F46051C90A0B4D6B5C4568DD40C5603E
:10073000054D6D6805F44041890B074D6B5CC5683C
:10074000B5FBF3F5056130BD0010024000127A00E0
:1007500000093D00DE000020EE00002010B500F092
:1007600001F810BD0CB500200190009033480068DE
:1007700040F480303149086000BF3048006800F420
:10078000003000900198401C0190009818B9019821
:10079000B0F5A06FF1D12948006800F4003010B125
:1007A0000120009001E0002000900098012843D132
:1007B0002348006840F0100021490860084600689E
:1007C00020F0030008600846006840F0020008605E
:1007D0001A48406819494860084640684860084619
:1007E000406840F4806048600846406820F47C100F
:1007F00048600846406840F4E810486008460068D1
:1008000040F08070086000BF0C48006800F0007085
:100810000028F9D00948406820F0030007494860E3
:100820000846406840F00200486000BF0348406846
:1008300000F00C000828F9D10CBD000000100240A7
:100840000020024010B51348006840F00100114933
:10085000086008464068104908400E49486008464C
:1008600000680E4908400B4908600846006820F4FB
:10087000802008600846406820F4FE0048604FF47D
:100880001F008860FFF76AFF4FF0006004490860AE
:1008900010BD0000001002400000FFF8FFFFF6FE50
:1008A00008ED00E010B50121054800F026F828B158
:1008B0000121034800F012F800F00EFF10BD000007
:1008C0000008004021B1028842F08002028004E06A
:1008D00002884FF67F731A4002807047CA43028233
:1008E000704721B1028842F00102028004E00288D0
:1008F0004FF6FE731A400280704730B50246002062
:1009000000230024158A05EA0103958905EA0104FC
:1009100013B10CB1012000E0002030BD1AB1838971
:100920000B43838102E083898B43838170478184F9
:1009300070470000002202881D4B98420ED01D4BCC
:1009400098420BD0B0F1804F08D01B4B984205D095
:100950001A4B984202D01A4B984204D14FF68F732B
:100960001A404B881A43174B984207D0164B9842AF
:1009700004D04FF6FF431A40CB881A4302808B887D
:1009800083850B8803850A4B98420BD0094B98420C
:1009900008D00E4B984205D00D4B984202D00D4B1B
:1009A000984201D10B7A03860123838270470000AD
:1009B000002C0140003401400004004000080040C9
:1009C000000C0040001000400014004000400140B6
:1009D000004401400048014010B540F225510D4847
:1009E00000F035F8012806D100F07EFE40F22551D6
:1009F000084800F011F840F22661064800F027F898
:100A0000012806D100F078FE40F22661014800F08E
:100A100003F810BD0038014010B50022002340F655
:100A20006A14A14200D100BF0A1201249440A3B26B
:100A3000DC43048010BD21B1828942F400528281DE
:100A400004E082894DF6FF731A408281704770B5C9
:100A50000246002400230025002040F66A16B14219
:100A600000D100BFC1F3421501F01F03012606FAB1
:100A700003F3012D02D19689334006E0022D02D105
:100A8000168A334001E0968A33400C12012606FA9A
:100A900004F41688344013B10CB1012000E00020AA
:100AA00070BDF0B50346002400260025002040F666
:100AB0006A17B94200D100BF1846C1F3421401F0D1
:100AC0001F06012707FA06F5012C01D10C3004E0BE
:100AD000022C01D1103000E014301AB107682F4306
:100AE000076002E00768AF430760F0BD2DE9F047FB
:100AF00086B005460E460024A24600BFA146002748
:100B0000B08900B100BF2F462C8A4CF6FF7004401C
:100B1000F08804432C82AC894EF6F3100440B08870
:100B200031890843718908430443AC81AC8A4FF68C
:100B3000FF400440B0890443AC8201A8FFF7A4FD44
:100B40001F48874202D1DDF810A001E0DDF80CA0BB
:100B5000A88900F4004040B10AEBCA0000EB0A107B
:100B600031684900B0FBF1F807E00AEBCA0000EB7E
:100B70000A1031688900B0FBF1F86420B8FBF0F08E
:100B800004012009642101FB1089A88900F40040B8
:100B900040B1322000EBC900B0FBF1F000F00700DB
:100BA000044308E0322000EB09106421B0FBF1F0AF
:100BB00000F00F0004432C8106B0BDE8F087000070
:100BC0000038014001468888C0F308007047C1F32F
:100BD000080282807047000010B5002406480078A3
:100BE000012806D1054800688047002002490870A6
:100BF00000E00624204610BD02000020080000206E
:100C00002DE9F05F06460D464FF0000B28880528B9
:100C100044D170784FEA002AB07840EA0A0AF078A6
:100C2000040230790443012C35DBB4F5FA6F32DA73
:100C3000374600202880012007F8010B2888401C37
:100C4000288004F0070040B12046E11704EB517101
:100C5000C910491C01F0FF0805E02046E11704EB2C
:100C60005171C1F3C70807F8018B2888401C288000
:100C7000002322465146384600F02AFC8146B9F14D
:100C8000000F04D0484600F016FD834608E028888F
:100C90004044288004E04FF0030B01E04FF0030BC9
:100CA0005846BDE8F09F2DE9F05F06460D464FF02F
:100CB000000B2888052843D170784FEA002AB078C5
:100CC00040EA0A0AF078040230790443012C34DB4C
:100CD000B4F5FA6F31DA374600202880022007F891
:100CE000010B2888401C288004F0070040B12046F2
:100CF000E11704EB5171C910491C01F0FF0805E030
:100D00002046E11704EB5171C1F3C70807F8018BC6
:100D10002888401C288022465146384600F024FC92
:100D20008146B9F1000F04D0484600F0C4FC834668
:100D300008E028884044288004E04FF0030B01E0DD
:100D40004FF0030B5846BDE8F09F2DE9F0470546EC
:100D50000C464FF0000A2088052833D168784FEA06
:100D60000029A87840EA0909E87806022E79012EC0
:100D700025DB7D2E23DC2F4600202080032007F872
:100D8000010B2088401C20807006000E07F8010B24
:100D90002088401C2080002332464946384600F017
:100DA00013FC8046B8F1000F04D0404600F083FCED
:100DB000824609E0208800EB4600208004E04FF0E6
:100DC000030A01E04FF0030A5046BDE8F0872DE921
:100DD000F04705460C464FF0000A2088052833D11D
:100DE00068784FEA0029A87840EA0909E8780602FD
:100DF00028790643012E24DB7D2E22DA2F4600209F
:100E00002080042007F8010B2088401C20807006F9
:100E1000000E07F8010B2088401C2080324649460E
:100E2000384600F013FC8046B8F1000F04D040466D
:100E300000F041FC824609E0208800EB460020805B
:100E400004E04FF0030A01E04FF0030A5046BDE80A
:100E5000F0872DE9FC5F04460D46002000902888AD
:100E60000A285DDB60784FEA002AA07840EA0A0A87
:100E70000AF101001FFA80FAE078060220790643A1
:100E800060794FEA002BA07940EA0B0B0BF10100CF
:100E90001FFA80FBE0790702207A0743607A01900D
:100EA000012E3BDB7D2E39DC012F37DB792F35DC42
:100EB00079000198814231D101233A46594604F123
:100EC0000A0000F081FB8146B9F1000F1ED1A04657
:100ED00000202880172008F8010B2888401C288053
:100EE0007006000E08F8010B2888401C288000239B
:100EF00032465146404600F067FB8146B9F1000F8B
:100F000004D12888022101FB06002880B9F1000FD6
:100F100006D0484600F0CFFB009001E0032000908F
:100F20000098BDE8FC9F000070B505460C460648D9
:100F300002880649681CFFF7A9F903480088401C8D
:100F40002080002070BD0000F20000201801002069
:100F50002DE9F84304460E464FF000083088052876
:100F600027D160780702A07807432079F0B9E078AC
:100F7000FF2801D0E078C8B900208DF80100E078A2
:100F8000FF2803D101208DF8000002E000208DF839
:100F9000000001231A463946684600F099FA0546D2
:100FA0004DB1284600F087FB804604E04FF003086F
:100FB00001E04FF003084046BDE8F8832DE9F04119
:100FC00004460E464FF000083088052810D160789E
:100FD0000702A078074301231A463946E01C00F0B7
:100FE000F3FA054635B1284600F065FB804601E07E
:100FF0004FF003084046BDE8F0812DE9F05F05465B
:101000000E464FF0000B3088052838DD68784FEA2F
:101010000029A87840EA0909E878040228790443FD
:1010200095F805A004F0070038B12046E11704EB5D
:101030005171C910491CCFB205E02046E11704EBFD
:101040005171C1F3C707012C16DBB4F5F66F13DC41
:10105000574511D1012322464946A81D00F038FA10
:101060008046B8F1000F04D0404600F024FB8346D0
:1010700007E00520308004E04FF0030B01E04FF063
:10108000030B5846BDE8F09F2DE9F04704460E4695
:101090004FF0000A3088062826DB60784FEA0028E7
:1010A000A07840EA0808E07805022079054394F822
:1010B0000590012D15DB782D13DC6806000E4845E0
:1010C0000FD101232A464146A01D00F07DFA0746B4
:1010D00027B1384600F0EFFA824607E0052030805D
:1010E00004E04FF0030A01E04FF0030A5046BDE868
:1010F000F08700002DE9F04705460C4616461F46CE
:10110000DDF820904FF000081CB1012C01DBF72C1A
:1011100002DD4FF0020835E01C48047005BB1C4896
:101120001C4908601C481D4908601D481D4908608D
:101130001D481E49086000201D4908601D481E49C1
:1011400008601E481E4908601E481F4908604B463B
:101150003A4631460D48007800F0D8F8804602E063
:101160004FF0020800BF00BFB8F1000F0AD100F035
:1011700053FB10B94FF0030804E014480570012038
:10118000134908704046BDE8F087000000000020C9
:10119000A514000808000020C11400080C0000205D
:1011A000FD130008040000205D130008100000205B
:1011B00014000020CD19000818000020151B00089D
:1011C0001C000020991A00082000002001000020C7
:1011D0000200002038B500254148007808B10620FB
:1011E00038BD684600F006FB012877D19DF8000065
:1011F00030B1012805D0022818D003286DD16BE04A
:101200006BE0384A38493948394B1B6898470546DE
:101210005DB93648007837490978884202D03348AA
:10122000007810B9022000F0FFFA56E02E4800685E
:10123000007831490870012030490870002417E017
:101240002F4810F8340000B914E02D4810F834008D
:101250002949097888420AD1294800EBC40021496C
:1012600042682148006890472449087002E0641CE5
:10127000102CE5DB00BF1D48007858B31F480078EC
:10128000C8B10020174908801B48007840F0800151
:10129000144802880088401C124B188012480068CD
:1012A000815416480278184601880088401C18802E
:1012B0000D480068425413480078012800D100BF4F
:1012C00008480288084801680A4800780E4B1B68E5
:1012D0009847054601E001E000BF00BF00207FE71E
:1012E00002000020B2000020AC000020B00000206E
:1012F0001000002000000020B1000020B4000020F9
:101300002C00002001000020040000202DE9F047FF
:1013100081460E4614461F464FF000083B46082201
:101320002146304600F096FA012802D04FF003081B
:101330000FE0B4F5964F01D9232503E0600006497C
:10134000B1FBF0F5A8B200F0F9FA012801D04FF096
:1013500003084046BDE8F087A07F17002DE9F04163
:1013600004460D4616464FF0000800271248008834
:10137000FF2800DC04E0A72210A115A0FEF746FF1D
:101380000D480088042812DB0B4801881A4800F039
:10139000BBF960B918480078207007480088C01E63
:1013A00030801548401C28604FF0010800E00527F8
:1013B0003846BDE8F0810000FE0000206D6F6462D9
:1013C00075735C7274755C6D627274752E63000067
:1013D0007573526376427566666572506F73203C12
:1013E000204D425F5345525F5044555F53495A4523
:1013F0005F4D415800000000380100202DE9F04108
:1014000005460E4617464FF000082148007801288F
:1014100038D1701E1F49086001201F4908801D48EF
:10142000006805700846008838440880084601882E
:101430001848006800F068F9044617490888411CFC
:10144000154B198015490C54221219460888411C65
:10145000198012490A540120114908700D49096880
:10146000087800F061FA0B480068401C09490860E0
:1014700009480088401E084908800121002000F02A
:101480005FF901E04FF005084046BDE8F08100003B
:10149000F5000020F8000020FC00002038010020AA
:1014A000F400002010B5002004490870002101203C
:1014B00000F046F900F088F910BD0000F5000020AA
:1014C00010B50021084600F03BF900F067F910BDA7
:1014D0002DE9F04705460E46904699464FF0000A22
:1014E0000FFA88F430B2002836DB06EB080010282B
:1014F00032DC304607B2B9F1000F03D0B9F1010F69
:1015000029D115E011E0082C01DD082000E020467B
:10151000C2B2B9B2134800F057FB05F8010BA4F1B1
:10152000080004B207F1080007B2002CEBDC12E05F
:101530000EE015F8013B082C01DD082000E02046F4
:10154000C2B2B9B2074800F055FBA4F1080004B2DA
:10155000002CEEDC00BF01E04FF0010A5046BDE870
:10156000F0870000DA0000202DE9F04705460C4620
:1015700016464FF0000937B220B200281CDBA01934
:10158000102819DC20461FFA80F812E0082F01DD30
:10159000082000E03846C2B241460A4800F014FB79
:1015A00005F8010BA7F1080007B208F108001FFABF
:1015B00080F8002FEADC01E04FF001094846BDE861
:1015C000F0870000DC000020F0B504460D46002046
:1015D0002EB2002E34DBAE18082E31DC194E3688C0
:1015E000AE1B31B213B1012B29D112E00EE0164E21
:1015F00036F81160361204F8016B134E16F81160BC
:1016000004F8016B4E1C31B2561EB2B2002AEEDC59
:1016100015E011E014F8017B3E020B4F27F8116032
:1016200014F8016B37F811703E43074F27F811602B
:101630004E1C31B2561EB2B2002AEBDC00BF00E0F5
:101640000120F0BDD8000020C800002030B50346BE
:1016500000200DB2002D19DB8D18082D16DC0C4D65
:101660002D884D1B2CB20EE00A4D35F814502D126A
:1016700003F8015B074D15F8145003F8015B651C76
:101680002CB2551EAAB2002AEEDC00E0012030BDCB
:10169000C6000020B600002008B500204FF4164315
:1016A000012211460090FFF725FDFFF795FA01E0B2
:1016B000FFF790FDFCE7014621B1012904D007297D
:1016C00006D103E0002005E0022003E0062001E04F
:1016D000042000BF00BF704710B502480068804773
:1016E00010BD00002000002010B5024800688047AF
:1016F00010BD00001800002010B5024800688047A7
:1017000010BD00001C00002070B502460C46FF25ED
:10171000FF2309E012F8010B80EA03010648405C50
:1017200080EA05030548455C201EA4F10106B4B219
:10173000F0D143EA052070BD881C0008881D000810
:1017400070B505460C465DB1012240F225511148A5
:10175000FFF7A7F94FF480710F48FEF72FFF0AE05B
:10176000002240F225510B48FFF79BF94FF480719E
:101770000948FEF725FF34B1012240F226610548F1
:10178000FFF78FF905E0002240F226610148FFF7DC
:1017900088F970BD003801400014014010B50121E6
:1017A0000848FFF79BF8002201210648FFF7B6F82A
:1017B00000210448FFF7BBF800210248FFF791F829
:1017C00010BD00000008004010B501210848FFF7D7
:1017D00085F8012211460648FFF7A0F800210448C9
:1017E000FFF7A5F801210248FFF77BF810BD0000C4
:1017F0000008004001460020054A127832B1054A2F
:1018000012780A700022024B1A7001207047000003
:101810000101002000010020002002490870012081
:10182000704700000101002001460120024A1070AB
:1018300002480170012070470101002000010020D2
:1018400010B504460248FFF7BDF92070012010BD15
:1018500000380140F0B587B005460C4616461F46D5
:10186000012144F20400FEF7FFFE4FF40070ADF8D2
:10187000180003208DF81A0018208DF81B0006A907
:101880002648FEF710FE4FF48060ADF818000320E4
:101890008DF81A0004208DF81B0006A91F48FEF7DA
:1018A00002FE02940020ADF80C00ADF80E00ADF879
:1018B0001000ADF814000C20ADF8120002A9184871
:1018C000FFF714F901211648FFF7B5F84FF4C0608F
:1018D000FEF7B0FE25208DF8040000208DF80500ED
:1018E0008DF8060001208DF8070001A8FEF76AFEBA
:1018F00001212020FEF7B8FE4FF48070ADF81800EB
:1019000003208DF81A0010208DF81B0006A9054849
:10191000FEF7C9FD012007B0F0BD0000000801403E
:10192000003801400014014010B504462146024829
:10193000FFF74DF9012010BD003801407FB5044686
:10194000002501210420FEF77FFE1E48006844F6B2
:101950002061B0FBF1F0401E85B2ADF80840ADF853
:1019600004500020ADF80A00ADF8060001A91648A1
:10197000FEF7E0FF01211448FEF7A4FF4FF4C0601A
:10198000FEF758FE1E208DF8000000208DF80100A3
:1019900003208DF8020001208DF803006846FEF751
:1019A00011FE01210848FEF799FF00220121064897
:1019B000FEF7B4FF00210448FEF793FF012004B0B6
:1019C00070BD0000040100200008004038B500246C
:1019D0002148007800B904E0F92220A124A0FEF7F4
:1019E00015FC6846FFF72CFF2848007830B1012825
:1019F0000AD0022819D003282BD102E0FFF7E4FE19
:101A000027E0FFF7E1FE24E00020214908809DF84F
:101A100000200888411C1E4B19801E490A540220D0
:101A20001A490870FFF7D0FE13E019480088FF2814
:101A300009DC9DF8002016490888411C144B1980C8
:101A400014490A5402E0032010490870FFF7BCFE55
:101A500000BF00BF204638BDF40000206D6F6462F7
:101A600075735C7274755C6D627274752E630000C0
:101A700065536E645374617465203D3D2053544139
:101A800054455F54585F49444C450000F500002020
:101A9000FE0000203801002010B500241648007810
:101AA00020B1022807D003280BD109E00020FFF75E
:101AB000BBFE044618E00120FFF7B6FE044613E023
:101AC00012E00D48007838B10B480078022803D0A6
:101AD00009480078032800D105E040F27B1207A1F5
:101AE0000B48FEF793FB00BF00BFFFF757FE012036
:101AF00001490870204610BDF50000206D6F64623A
:101B000075735C7274755C6D627274752E6300001F
:101B1000881E000810B500241B480078012800D159
:101B200005E040F2391219A11DA0FEF76FFB234812
:101B3000007810B1012824D104E000210120FFF732
:101B4000FFFD1EE01E48008878B11E49096808782C
:101B5000FFF7EAFE1B480068401C1A490860184855
:101B60000088401E164908800AE00320FFF75CFE4B
:101B7000044600210120FFF7E3FD00200F49087013
:101B800000BF00BF204610BDF50000206D6F6462ED
:101B900075735C7274755C6D627274752E6300008F
:101BA000655263765374617465203D3D2053544102
:101BB00054455F52585F49444C450000F4000020F2
:101BC000FC000020F8000020F0B503460C46154646
:101BD000E208A4EBC20087B20120A840401E86B2F2
:101BE000995C501C185C41EA002139413140C8B26F
:101BF000F0BD00002DE9FF5F05460E469046DDF87A
:101C00000CB0B8F1080F00DC04E0382213A11AA0D0
:101C1000FEF7FCFAF408A6EBC4001FFA80FA0BFAF0
:101C20000AF01FFA80FB012000FA08F0401E1FFA9C
:101C300080F9A6EBC40009FA00F01FFA80F92F5DC5
:101C4000601C285C47EA002727EA090040EA0B07E6
:101C50002F553912601C2954BDE8FF9F6D6F6462D7
:101C600075735C66756E6374696F6E735C6D6275B7
:101C700074696C732E63000075634E42697473203F
:101C80003C3D20380000000000C1814001C080417F
:101C900001C0804100C1814001C0804100C181403C
:101CA00000C1814001C0804101C0804100C181402C
:101CB00000C1814001C0804100C1814001C080411C
:101CC00001C0804100C1814001C0804100C181400C
:101CD00000C1814001C0804100C1814001C08041FC
:101CE00001C0804100C1814000C1814001C08041EC
:101CF00001C0804100C1814001C0804100C18140DC
:101D000000C1814001C0804101C0804100C18140CB
:101D100000C1814001C0804100C1814001C08041BB
:101D200001C0804100C1814000C1814001C08041AB
:101D300001C0804100C1814001C0804100C181409B
:101D400000C1814001C0804100C1814001C080418B
:101D500001C0804100C1814001C0804100C181407B
:101D600000C1814001C0804101C0804100C181406B
:101D700000C1814001C0804100C1814001C080415B
:101D800001C0804100C1814000C0C101C30302C243
:101D9000C60607C705C5C404CC0C0DCD0FCFCE0EAB
:101DA0000ACACB0BC90908C8D81819D91BDBDA1A1B
:101DB0001EDEDF1FDD1D1CDC14D4D515D71716D68B
:101DC000D21213D311D1D010F03031F133F3F232FB
:101DD00036F6F737F53534F43CFCFD3DFF3F3EFE6B
:101DE000FA3A3BFB39F9F83828E8E929EB2B2AEADB
:101DF000EE2E2FEF2DEDEC2CE42425E527E7E6264B
:101E000022E2E323E12120E0A06061A163A3A262BA
:101E100066A6A767A56564A46CACAD6DAF6F6EAE2A
:101E2000AA6A6BAB69A9A86878B8B979BB7B7ABA9A
:101E3000BE7E7FBF7DBDBC7CB47475B577B7B6760A
:101E400072B2B373B17170B050909151935352927A
:101E500096565797559594549C5C5D9D5F9F9E5EEA
:101E60005A9A9B5B99595898884849894B8B8A4A5A
:101E70004E8E8F4F8D4D4C8C4484854587474686CA
:101E800082424383418180402820655263765374A7
:101E9000617465203D3D2053544154455F52585F65
:101EA000494E49542029207C7C20282065526376A5
:101EB0005374617465203D3D2053544154455F5235
:101EC000585F5243562029207C7C2028206552638D
:101ED000765374617465203D3D2053544154455FF1
:101EE00052585F4552524F52202900000C1F0008E3
:101EF00000000020180100006C01000824200008E8
:101F0000180100208007000088010008000002007E
:101F100000000000000000000000000000000000C1
:101F200000000000000000000000000000000000B1
:101F3000000000000000000011000000290F000850
:101F400004000000CF0D0008030000004B0D000846
:101F5000100000008910000806000000BD0F0008F6
:101F600017000000530E000801000000010C0008DB
:101F700005000000510F00080F000000FB0F0008D3
:101F800002000000A70C0008000000000000000094
:101F90000000000000000000000000000000000041
:101FA0000000000000000000000000000000000031
:101FB0000000000000000000000000000000000021
:101FC000000000100110021003100410051006108C
:101FD000071000007B148E3F7B140E40B81E554046
:101FE0007B148E400000010201020000000001028B
:101FF000030401020304060708090204060800009E
:1020000000000000000000000000000000000000D0
:1020100000A24A04000000000000000001020304C6
:04202000060708099E
:0400000508000131BD
:00000001FF
