:020000040800F2
:10000000900900201D020008290B0008A70A00081B
:10001000250B00084B070008D7150008000000005A
:10002000000000000000000000000000291000088F
:100030004F07000800000000BD0B00087312000805
:1000400037020008370200083702000837020008AC
:10005000370200083702000837020008370200089C
:100060003702000837020008650800083702000858
:10007000370200083702000837020008370200087C
:10008000370200083702000837020008370200086C
:10009000370200083702000837020008370200085C
:1000A000370200083702000837020008370200084C
:1000B000370200083702000855130008370200080D
:1000C000370200083702000837020008370200082C
:1000D00037020008B513000837020008370200088D
:1000E000370200083702000837020008370200080C
:1000F00037020008370200083702000837020008FC
:1001000037020008370200083702000837020008EB
:1001100037020008370200083702000837020008DB
:1001200037020008370200083702000837020008CB
:1001300000F002F800F062F80AA090E8000C824497
:100140008344AAF10107DA4501D100F057F8AFF274
:10015000090EBAE80F0013F0010F18BFFB1A43F0A5
:10016000010318479C260000BC2600000A444FF0FB
:10017000000C10F8013B13F0070408BF10F8014B06
:100180001D1108BF10F8015B641E05D010F8016B4B
:10019000641E01F8016BF9D113F0080F1EBF10F8AF
:1001A000014BAD1C0C1B09D16D1E58BF01F801CBD2
:1001B000FAD505E014F8016B01F8016B6D1EF9D555
:1001C0009142D6D37047000000230024002500266A
:1001D000103A28BF78C1FBD8520728BF30C148BFAA
:1001E0000B607047642900F07980782900F0B280B4
:1001F000002070471FB51FBD10B510BD00F03CFAC0
:100200001146FFF7F7FF02F015F900F05AFA03B4B0
:10021000FFF7F2FF03BC01F05DFC000009488047D6
:1002200009480047FEE7FEE7FEE7FEE7FEE7FEE7D8
:10023000FEE7FEE7FEE7FEE704480549054A064BF0
:1002400070470000F51200083101000890030020FB
:100250009009002090050020900500200FB404496B
:1002600010B503AA029800F083F910BC5DF814FBE6
:10027000200100202DE9F0410E46044600202062B6
:100280002046E168884730B3252805D0D4E901210C
:100290009047206A401CF2E7E16820460027884723
:1002A000050018D0A5F14100192802D820354FF4D7
:1002B00000673246294620462760FFF793FF40B18A
:1002C000012804D0F61D26F007060836D8E7361DAB
:1002D000D6E72846DAE7206ABDE8F0812DE9F0414B
:1002E0000646002410687529314616A510D0AFF3D4
:1002F0000080002802DA404213A507E031688A072F
:1003000001D512A502E0490704D511A5012401E099
:10031000AFF3008000210A2206F1240709E0B0FBB8
:10032000F2FCB0FBF2F302FB1C00303078541846AC
:10033000491C0028F3D123462A463046BDE8F04147
:1003400000F0BCB8000000002D0000002B000000F1
:100350002000000070B504460D4621461068AFF33A
:1003600000802188090502D50F4A7A4402E00E4A2E
:100370007A440E32002104F1240305E000F00F0658
:100380000009965D5E54491C0028F7D120780023AF
:10039000000704D5702D02D009B102231132204686
:1003A000BDE8704000F08AB86A2400000EB505462A
:1003B00014460E4613A000F0F8F8284600F0F5F8B1
:1003C00016A000F0F2F8304600F0EFF815A000F0AB
:1003D000ECF800218DF80B100A210DF10A008DF8C0
:1003E0000A1008E094FBF1F201FB124294FBF1F4D5
:1003F000303200F8012D002CF4DC00F0D6F800F0CB
:10040000C9F800002A2A2A20617373657274696F23
:100410006E206661696C65643A2000002C20666974
:100420006C6520002C206C696E652000032A40F268
:10043000308010F0030C00F0158011F8013BBCF186
:10044000020F624498BF11F801CB00F8013B38BF9E
:1004500011F8013BA2F1040298BF00F801CB38BFAC
:1004600000F8013B11F0030300F0A980083AC0F046
:10047000088051F8043B083A51F804CBA0E8081072
:10048000F5E7121D5CBF51F8043B40F8043BAFF3A5
:100490000080D20724BF11F8013B11F801CB48BFFF
:1004A00011F8012B24BF00F8013B00F801CB48BF35
:1004B00000F8012B70477047704770472DE9F047EF
:1004C0000D4699469246044600F1240801688806C4
:1004D00004D5E06921F01001216000E00120A8426C
:1004E00001DD471B00E00027A1697A1902EB090032
:1004F000081AA0612078C00602D42046AFF300801D
:10050000002608E0D4E901211AF806009047206A85
:10051000401C761C20624E45F4DB2078C0060AD5CC
:100520002046AFF3008006E0D4E901213020904757
:10053000206A401C2062381EA7F10107F4DC07E0A6
:10054000D4E9012118F805009047206A401C206278
:10055000281EA5F10105F3DC2046AFF300802078CA
:10056000000602D50220BDE8F0870120FBE700006D
:10057000074B70B50D467B4400F05FF804462846F3
:1005800000F06EF810B14FF0FF3070BD204670BD26
:100590009F1E000010B5002000F066F8FFF72CFE4B
:1005A000BDE81040012001F095BA10B5044602E004
:1005B000641C00F036F820780028F9D110BD10B581
:1005C000203AC0F00B80B1E81850203AA0E818504B
:1005D000B1E81850A0E81850BFF4F5AF5FEA027C0C
:1005E00024BFB1E81850A0E8185044BF18C918C07B
:1005F000BDE810405FEA827C24BF51F8043B40F81C
:10060000043B08BF7047D20728BF31F8023B48BF00
:1006100011F8012B28BF20F8023B48BF00F8012B3E
:10062000704708B569468DF800000320ABBE08BDD1
:1006300001694A1C02610878704700B58FB0CDE9A6
:1006400001310021059105497944CDE90310114696
:100650006846FFF70FFE0FB000BD0000E5FFFFFF8B
:10066000007B00F08000704710B500F039F8BDE85D
:10067000104000F02FB87047754600F049F8AE46BC
:1006800005006946534620F00700854618B020B59E
:10069000FFF7D2FDBDE820404FF000064FF0000705
:1006A0004FF000084FF0000B21F00701AC46ACE81A
:1006B000C009ACE8C009ACE8C009ACE8C0098D4687
:1006C000704710B50446AFF300802046BDE81040E7
:1006D000FFF79DBD002801D001F0FCB97047000074
:1006E00010B5002102A000F017F8012010BD000095
:1006F000534947414252543A2041626E6F726D61D4
:100700006C207465726D696E6174696F6E000000B3
:10071000004870472C03002070B505460C460A209F
:1007200000E06D1CFFF77DFF35B128780028F8D177
:1007300002E0641CFFF775FF14B120780028F8D19F
:10074000BDE870400A20FFF76CBF00BFFEE77047AE
:1007500000B503464FF47A7103FB01F000F002F894
:1007600000BD00000C4908604FF0E021096941F02C
:1007700001014FF0E022116100BF0749096800291B
:10078000FBD14FF0E021096921F001014FF0E02297
:1007900011610021916170471C01002038B530487B
:1007A0000078401CC0B28DF800002D484078401CF5
:1007B000C0B28DF801002A488078401CC0B28DF884
:1007C00002002748C078401CC0B28DF803006A467A
:1007D0000C21002001F032F901220021084601F02D
:1007E000F1F801221146002001F0ECF80520FFF796
:1007F000AFFF0321002000F013FB132806D01022C6
:100800000121002001F0DEF8002038BD0422012182
:10081000002001F0D7F800BF00240221002000F0E2
:10082000FFFA044624B122460221002001F0CAF852
:100830000520FFF78DFF04F00800082801D10020F3
:10084000E3E70621002000F0EBFAFF2806D0102293
:100850000121002001F0B6F80120D6E7DCE7000016
:100860000601002010B5102000F010F828B110206B
:1008700000F006F801200149087010BD1B0100209E
:10088000014908607047000014040140014600203F
:100890000022074B1B6803EA0102054B14331B6857
:1008A0000B4013B10AB1012000E0002070470000A6
:1008B00000040140002123498279002A3AD00A46E7
:1008C000126803689A430B461A600A1D126803688F
:1008D0009A430B1D1A60027911440A6803681A438F
:1008E0000A60184A0832126803689A43154B0833A5
:1008F0001A601A1D126803689A43124B0C331A606F
:100900004279102A0ED11A1F126803681A430D4B40
:1009100008331A601A1D126803681A43094B0C3316
:100920001A600DE00749427911440A6803681A43C6
:100930000A6005E0027911440A6803689A430A6074
:10094000704700000004014030B500228B071C0FE7
:100950000F2303FA04F20B4B8C1053F8243093430B
:10096000084C8D1044F8253023468C1053F8243061
:100970008C07240F00FA04F42343024C8D1044F832
:10098000253030BD080001402DE9F0410246002528
:100990000026002000230024002791F803C00CF05B
:1009A0000F0591F803C00CF0100CBCF1000F03D040
:1009B00091F802C04CEA050591F800C0BCF1000FA7
:1009C00031D0146800202BE04FF0010C0CFA00F33A
:1009D000B1F800C00CEA03069E4220D183004FF01C
:1009E0000F0C0CFA03F7BC4305FA03FC4CEA0404B1
:1009F00091F803C0BCF1280F06D14FF0010C0CFA9E
:100A000000FCC2F814C00AE091F803C0BCF1480F22
:100A100005D14FF0010C0CFA00FCC2F810C0401CCC
:100A20000828D1D31460B1F800C0BCF1FF0F34DD49
:100A3000546800202EE000F1080C4FF0010808FA7D
:100A40000CF3B1F800C00CEA03069E4221D18300EA
:100A50004FF00F0C0CFA03F7BC4305FA03FC4CEA09
:100A6000040491F803C0BCF1280F05D100F1080C73
:100A700008FA0CF8C2F8148091F803C0BCF1480FD2
:100A800007D100F1080C4FF0010808FA0CF8C2F881
:100A90001080401C0828CED35460BDE8F08141612D
:100AA00070470161704700BFFEE70000AC201749A6
:100AB00008701220487006208870FE20C870FF2041
:100AC00013490870487088700020C8700C201149C4
:100AD000087029204870AB2088707C20C8700020E6
:100AE000087101204871AC200B4908701220487031
:100AF00006208870C820C870012008490870F620B8
:100B0000487000200649087070470000F800002077
:100B1000FC00002000010020060100200A01002046
:100B20001801002000BFFEE7704710B54FF4A06029
:100B300000F03AF810BD000070B5002100230F222C
:100B4000C47804B3154C246804F4E064C4F5E0648C
:100B5000210AC1F10403CA40447804FA03F18478FD
:100B60001440214309010E4C0678A155047804F085
:100B70001F050124AC4005786D11AD0005F1E0259D
:100B8000C5F8004109E0047804F01F050124AC40D9
:100B9000044D0678761145F8264070BD0CED00E056
:100BA00000E400E080E100E002490143024A1160F4
:100BB000704700000000FA050CED00E070470000EF
:100BC00029B1064A92690243044B9A6104E0034A40
:100BD00092698243014B9A61704700000010024005
:100BE00030B500210022002400232D4D6D6805F052
:100BF0000C0121B1042905D0082923D105E0294D94
:100C0000056022E0274D05601FE0254D6D6805F465
:100C10007012234D6D6805F48034022505EB924275
:100C20001CB9214D554305600BE01D4D6D6805F461
:100C300000351DB11C4D5543056002E0194D55436B
:100C4000056002E0174D056000BF00BF144D6D68E0
:100C500005F0F0010909154D6B5C0568DD40456044
:100C60000F4D6D6805F4E061090A104D6B5C456835
:100C7000DD4085600A4D6D6805F46051C90A0B4D71
:100C80006B5C4568DD40C560054D6D6805F440410D
:100C9000890B074D6B5CC568B5FBF3F5056130BD8D
:100CA0000010024000127A0000093D00DE00002022
:100CB000EE0000202DE9F04780460D4626214046F3
:100CC00000F0D6F8064616B90020BDE8F08740F2DD
:100CD000B450864200DD06462821404600F0C8F8A0
:100CE0000746B946C7F30A0701213A48FFF7D7FE7E
:100CF000384600F001F9182101EB4811C8B200F0A4
:100D0000EBF8354800F06DF900F0FF0AB819B0F5BE
:100D1000006F11DA00240CE0002000F0DDF82E480E
:100D200000F05FF900F0FF0A85F800A06D1C601C60
:100D300084B2B442F0DB39E0C7F5006087B200242A
:100D40000CE0002000F0C8F8234800F04AF900F059
:100D5000FF0A85F800A06D1C601C84B2BC42F0DB69
:100D600001211C48FFF79DFE01211A48FFF797FE5D
:100D7000002000F0C1F8182101EB4811C8B200F0C2
:100D8000ABF8154800F02DF900F0FF0A0CE0002048
:100D900000F0A2F8104800F024F900F0FF0A85F8EE
:100DA00000A06D1C601C84B2B442F0DB0121094834
:100DB000FFF777FE09EB06001FFA80F94A46282163
:100DC000404600F01DFE40220121404600F0FAFDA1
:100DD00030467AE7000801400030014070B5044613
:100DE00001210D48FFF75BFE204600F085F8012049
:100DF00000F072F8094800F0F4F8C5B2002000F0E5
:100E00006BF8064800F0EDF8C5B201210248FFF783
:100E100048FE284670BD0000000801400030014037
:100E200070B504460D4601210F48FFF738FE2846ED
:100E300000F062F8082101EB4411C9B241F0010051
:100E400000F04AF8094800F0CCF8C6B2002000F0E3
:100E500043F8064800F0C5F8C6B201210248FFF782
:100E600020FE304670BD0000000801400030014007
:100E700070B505460E4601211548FFF710FE3046B5
:100E800000F03AF8082101EB4511C9B241F0020027
:100E900000F022F80F4800F0A4F80446002000F00B
:100EA0001BF80C4800F09DF80446002000F014F8F0
:100EB0004FF6FF7000EA0424064800F092F8204440
:100EC00084B201210248FFF7ECFD204670BD00000E
:100ED000000801400030014010B504462146054895
:100EE00000F082F800BF0221024800F071F80028EB
:100EF000F9D010BD0030014070B504462546E11719
:100F000004EB1161C1F30720FFF7E6FFE0B2FFF742
:100F1000E3FF70BD21B1028842F04002028004E08C
:100F200002884FF6BF731A400280704700B587B041
:100F3000012141F20500FFF743FEE020ADF8180063
:100F400003208DF81A0018208DF81B0006A91E48F2
:100F5000FFF71AFDE0211C48FFF7A3FD0120ADF8C3
:100F6000180003208DF81A0010208DF81B0006A928
:100F70001548FFF709FD01211348FFF792FD0020F6
:100F8000ADF804004FF48270ADF806000020ADF813
:100F90000800ADF80A00ADF80C004FF40070ADF891
:100FA0000E000020ADF81000ADF812000720ADF8DB
:100FB000140001A9054800F019F801210348FFF7C2
:100FC000A9FF07B000BD000000080140003001404B
:100FD0000246002013890B400BB1012000E00020E5
:100FE00070470146888970478181704710B500229B
:100FF000028802F441520B884C8823438C88234397
:10100000CC8823430C8923434C8923438C89234375
:10101000CC8923431A430280838B4FF2FF74234011
:1010200083830B8A038210BD704710B500F002F86D
:1010300010BD00000CB500200190009033480068FE
:1010400040F480303149086000BF3048006800F447
:10105000003000900198401C0190009818B9019848
:10106000B0F5A06FF1D12948006800F4003010B14C
:101070000120009001E0002000900098012843D159
:101080002348006840F010002149086008460068C5
:1010900020F0030008600846006840F00200086085
:1010A0001A48406819494860084640684860084640
:1010B000406840F4806048600846406820F47C1036
:1010C00048600846406840F4E810486008460068F8
:1010D00040F08070086000BF0C48006800F00070AD
:1010E0000028F9D00948406820F00300074948600B
:1010F0000846406840F00200486000BF034840686E
:1011000000F00C000828F9D10CBD000000100240CE
:101110000020024010B5044601220021204600F0C4
:1011200051FC01221146204600F04CFC0520FFF73F
:101130000FFB03212046FFF773FE132806D0102271
:101140000121204600F03EFC002010BD04220121B8
:10115000204600F037FC0120F7E7000010B50446F8
:1011600040F2B4521221002000F04AFC082C26D292
:10117000DFE804F0041E1F202122232411484178B7
:10118000007801EB002082B20421002000F038FC3E
:101190000D484178007801EB002082B21021002038
:1011A00000F02EFC094A0C21002000F047FC07E06B
:1011B00006E005E004E003E002E001E000E000BF3B
:1011C00000BF10BD0A010020100100200C0100200A
:1011D00010B5044601220021204600F0F3FB012255
:1011E0001146204600F0EEFB0520FFF7B1FA03217F
:1011F0002046FFF715FE132806D0102201212046B5
:1012000000F0E0FB002010BD02220121204600F08A
:10121000D9FB0520FFF79CFA03212046FFF700FECB
:10122000142806D010220121204600F0CBFB00201C
:10123000E9E70120E7E710B5044602220021204635
:1012400000F0C0FB01221146204600F0BBFB052048
:10125000FFF77EFA03212046FFF7E2FD222806D0A1
:1012600010220121204600F0ADFB002010BD01201E
:10127000FCE710B500F092F810BD000030B5194839
:101280000068194AB0FBF2F1481EB0F1807F01D32B
:1012900001201BE0481E4FF0E022506150170F2242
:1012A000002807DA13071D0E104B00F00F04241F4F
:1012B0001D5503E013071C0E0D4B1C5400BF0020EE
:1012C0004FF0E022906107201061002008B100BFBC
:1012D000FEE74FF0E020006920F001004FF0E02130
:1012E000086130BD2801002040420F0018ED00E0E9
:1012F00000E400E010B51348006840F00100114917
:10130000086008464068104908400E494860084691
:1013100000680E4908400B4908600846006820F440
:10132000802008600846406820F4FE0048604FF4C2
:101330001F008860FFF779FE4FF0006004490860E5
:1013400010BD0000001002400000FFF8FFFFF6FE95
:1013500008ED00E010B50121054800F00EF828B1B5
:101360000121034800F006F801F000F910BD00006B
:1013700000080040CA430282704730B50246002090
:1013800000230024158A05EA0103958905EA010472
:1013900013B10CB1012000E0002030BD044800680A
:1013A00020B103480068401E0149086070470000F2
:1013B0001C01002010B540F225511D4800F04AF8EC
:1013C00010B31B4800F002F9C4B21A48008800F4B8
:1013D0000040C8B91748008800F4804060B10A2C6A
:1013E00003D000201349088020E01248008840F410
:1013F00000401049088019E00D2C06D10D480088E6
:1014000040F480400B49088010E00A480088C0F38F
:101410000D0009490C5407480088401C0549088004
:1014200008460088C72801DD0020088010BD0000A4
:1014300000380140240100206302002021B182898C
:1014400042F40052828104E082894DF6FF731A4013
:101450008281704770B502460024002300250020D9
:1014600040F66A16B14200D100BFC1F3421501F047
:101470001F03012606FA03F3012D02D1968933409A
:1014800006E0022D02D1168A334001E0968A3340ED
:101490000C12012606FA04F41688344013B10CB17C
:1014A000012000E0002070BDF0B5034600240026B6
:1014B0000025002040F66A17B94200D100BF184647
:1014C000C1F3421401F01F06012707FA06F5012CAB
:1014D00001D10C3004E0022C01D1103000E01430B6
:1014E0001AB107682F43076002E00768AF4307603F
:1014F000F0BD00002DE9F04786B005460E460024F9
:10150000A24600BFA1460027B08900B100BF2F4608
:101510002C8A4CF6FF700440F08804432C82AC897E
:101520004EF6F3100440B0883189084371890843AE
:101530000443AC81AC8A4FF6FF400440B0890443B9
:10154000AC8201A8FFF74CFB1F48874202D1DDF8AF
:1015500010A001E0DDF80CA0A88900F4004040B123
:101560000AEBCA0000EB0A1031684900B0FBF1F841
:1015700007E00AEBCA0000EB0A1031688900B0FBF3
:10158000F1F86420B8FBF0F004012009642101FBAC
:101590001089A88900F4004040B1322000EBC90056
:1015A000B0FBF1F000F00700044308E0322000EB4C
:1015B00009106421B0FBF1F000F00F0004432C810E
:1015C00006B0BDE8F0870000003801400146888879
:1015D000C0F30800704700BFFEE700000EB52020F2
:1015E000ADF8080001208DF80A0010208DF80B00DE
:1015F00002A91348FFF7C8F920211148FFF74FFA55
:101600001020ADF8080003208DF80A0048208DF85E
:101610000B0002A90A48FFF7B7F904210220FFF7DF
:1016200093F91020009000208DF804000C208DF814
:10163000050001208DF806006846FFF73BF90EBD56
:101640000010014010B520210A48FFF728FA322087
:10165000FFF77EF820210748FFF723FAC820FFF79D
:1016600077F800BF2E20FFF7B9FB00F0010000283B
:10167000F8D010BD0010014010B5002480210020DA
:1016800000F070F90A20FFF763F804221C490120DA
:1016900000F0FEF904221B49052000F0F9F90622AA
:1016A0001949092000F0F4F9042218490F2000F02C
:1016B000EFF900BF0BE002221E21204600F082F964
:1016C00002221F21204600F07DF9601CC4B2082CC4
:1016D000F1DB4FF4FA61192000F05CF908211B20BE
:1016E00000F040F9C021162000F03CF9012118203B
:1016F00000F038F91F222C21002000F063F910BD02
:10170000F8000020FC00002000010020060100205D
:1017100070B500BF00202B4908701520FFF75EFB55
:10172000054605F0F001152000F01CF91720FFF721
:1017300055FB054605F0010000283DD002210020A0
:10174000FFF76EFB044622460221002000F03AF922
:1017500004F0010028B11C48007840F002001A494A
:10176000087004F0020050B110220121002000F0A6
:1017700029F90020FFF7F2FC00201349087004F05B
:10178000100028B11148007840F002000F4908709D
:1017900004F0040028B10D48007840F001000B4926
:1017A000087004F0080038B110220121002000F078
:1017B00009F90020044908701720FFF70FFB00B15A
:1017C000A8E770BD1B010020190100201A010020AC
:1017D00008B50A208DF8000000208DF801000120D6
:1017E0008DF802008DF803006846FFF7A5F908BDE3
:1017F00010B51748007830BB1648007858B900205B
:10180000FFF7E6FC012802D1114908701FE0002013
:101810000F4908701BE00F48007801280BD1002009
:10182000FFF778FC012802D1094908700FE0002079
:10183000074908700BE00020FFF7FDFC012803D1E9
:1018400003200349087002E000200149087010BD20
:1018500019010020180100202DE9F04707460D4628
:10186000904600213846FFF7DBFA00F00F002228EF
:101870000ED0394A0C21384600F0E0F8374841785C
:10188000007801EB002082B21021384600F0B8F851
:1018900024213846FFF7ECFA0646B146C6F30A069D
:1018A00001212F48FFF7FBF83046FFF725FB1021F9
:1018B00001EB4711C9B241F00400FFF70DFB06EB45
:1018C0000800B0F5006F0ADA002405E015F8010BF6
:1018D000FFF702FB601C84B24445F7DB28E0C6F545
:1018E000006086B2002405E015F8010BFFF7F4FA5A
:1018F000601C84B2B442F7DB01211948FFF7D1F82C
:1019000001211748FFF7CBF80020FFF7F5FA102167
:1019100001EB4711C9B241F00400FFF7DDFA05E021
:1019200015F8010BFFF7D8FA601C84B24445F7DBC9
:1019300001210B48FFF7B5F809EB08001FFA80F901
:101940004A462421384600F05BF82022012138461F
:1019500000F038F8BDE8F0871201002016010020E1
:101960000008014070B505460C4601210848FFF704
:1019700096F82846FFF7C0FA0520FFF7ADFA204693
:10198000FFF7AAFA01210248FFF78BF870BD0000AB
:101990000008014070B505460C4601210848FFF7D4
:1019A0007EF82846FFF7A8FA0620FFF795FA2046AA
:1019B000FFF7A2FA01210248FFF773F870BD00009B
:1019C0000008014070B504460D46164601210B483B
:1019D000FFF765F82846FFF78FFA082101EB44115D
:1019E000C9B241F00500FFF777FA3046FFF774FA05
:1019F00001210248FFF755F870BD000000080140C2
:101A000070B504460D46164601210B48FFF747F80E
:101A10002846FFF771FA082101EB4411C9B241F0E1
:101A20000600FFF759FA3046FFF766FA012102482F
:101A3000FFF737F870BD00000008014070B505469B
:101A40000E46144601211148FFF729F83046FFF7EA
:101A500053FA082101EB4511C9B241F00700FFF725
:101A60003BFA14F8010BFFF737FA14F8010BFFF7F4
:101A700033FA14F8010BFFF72FFA14F8010BFFF7F4
:101A80002BFA01210148FFF70CF870BD0008014056
:101A90002DE9F04107460C46154601210C48FEF79A
:101AA000FEFF3846FFF728FA0420FFF715FA002654
:101AB00005E014F8010BFFF70FFA701C86B2AE4276
:101AC000F7DB01210248FEF7ECFFBDE8F0810000E2
:101AD00000080140014600BF7047000010B5002417
:101AE00006480078012806D1054800688047002094
:101AF0000249087000E00624204610BD02000020C4
:101B0000080000202DE9F05F06460D464FF0000B5F
:101B10002888052844D170784FEA002AB07840EA36
:101B20000A0AF078040230790443012C35DBB4F55D
:101B3000FA6F32DA374600202880012007F8010BBF
:101B40002888401C288004F0070040B12046E11797
:101B500004EB5171C910491C01F0FF0805E0204653
:101B6000E11704EB5171C1F3C70807F8018B28880E
:101B7000401C2880002322465146384600F0D8FAFF
:101B80008146B9F1000F04D0484600F0DDFC8346E1
:101B900008E028884044288004E04FF0030B01E06F
:101BA0004FF0030B5846BDE8F09F2DE9F05F064665
:101BB0000D464FF0000B2888052843D170784FEA76
:101BC000002AB07840EA0A0AF07804023079044327
:101BD000012C34DBB4F5FA6F31DA37460020288067
:101BE000022007F8010B2888401C288004F0070019
:101BF00040B12046E11704EB5171C910491C01F0B6
:101C0000FF0805E02046E11704EB5171C1F3C70856
:101C100007F8018B2888401C288022465146384608
:101C200000F0D2FA8146B9F1000F04D0484600F026
:101C30008BFC834608E028884044288004E04FF06D
:101C4000030B01E04FF0030B5846BDE8F09F2DE970
:101C5000F04705460C464FF0000A2088052833D18E
:101C600068784FEA0029A87840EA0909E87806026E
:101C70002E79012E25DB7D2E23DC2F4600202080AF
:101C8000032007F8010B2088401C20807006000EFE
:101C900007F8010B2088401C20800023324649466B
:101CA000384600F0C1FA8046B8F1000F04D0404633
:101CB00000F04AFC824609E0208800EB46002080C4
:101CC00004E04FF0030A01E04FF0030A5046BDE87C
:101CD000F0872DE9F04705460C464FF0000A2088B2
:101CE000052833D168784FEA0029A87840EA090925
:101CF000E878060228790643012E24DB7D2E22DABD
:101D00002F4600202080042007F8010B2088401C6B
:101D100020807006000E07F8010B2088401C2080F0
:101D200032464946384600F0C1FA8046B8F1000F05
:101D300004D0404600F008FC824609E0208800EB11
:101D40004600208004E04FF0030A01E04FF0030A50
:101D50005046BDE8F0872DE9FC5F04460D460020A3
:101D6000009028880A285DDB60784FEA002AA07876
:101D700040EA0A0A0AF101001FFA80FAE078060236
:101D80002079064360794FEA002BA07940EA0B0BDB
:101D90000BF101001FFA80FBE0790702207A07436C
:101DA000607A0190012E3BDB7D2E39DC012F37DB81
:101DB000792F35DC79000198814231D101233A46EF
:101DC000594604F10A0000F02FFA8146B9F1000FDC
:101DD0001ED1A04600202880172008F8010B288873
:101DE000401C28807006000E08F8010B2888401C53
:101DF0002880002332465146404600F015FA8146BD
:101E0000B9F1000F04D12888022101FB06002880C7
:101E1000B9F1000F06D0484600F096FB009001E0B3
:101E2000032000900098BDE8FC9F000070B50546B7
:101E30000C46064802880649681CFEF7F7FA034874
:101E40000088401C2080002070BD0000F2000020AF
:101E50003C0100202DE9F84304460E464FF00008EF
:101E60003088052827D160780702A07807432079B9
:101E7000F0B9E078FF2801D0E078C8B900208DF8EB
:101E80000100E078FF2803D101208DF8000002E076
:101E900000208DF8000001231A463946684600F0FC
:101EA00047F905464DB1284600F04EFB804604E058
:101EB0004FF0030801E04FF003084046BDE8F88307
:101EC0002DE9F04104460E464FF000083088052801
:101ED00010D160780702A078074301231A463946DB
:101EE000E01C00F0A1F9054635B1284600F02CFBB6
:101EF000804601E04FF003084046BDE8F0812DE93F
:101F0000F05F05460E464FF0000B3088052838DD9F
:101F100068784FEA0029A87840EA0909E8780402BD
:101F20002879044395F805A004F0070038B120464D
:101F3000E11704EB5171C910491CCFB205E02046EE
:101F4000E11704EB5171C1F3C707012C16DBB4F59F
:101F5000F66F13DC574511D1012322464946A81DCF
:101F600000F0E6F88046B8F1000F04D0404600F0DB
:101F7000EBFA834607E00520308004E04FF0030BC6
:101F800001E04FF0030B5846BDE8F09F2DE9F04704
:101F900004460E464FF0000A3088062826DB60789B
:101FA0004FEA0028A07840EA0808E0780502207986
:101FB000054394F80590012D15DB782D13DC680698
:101FC000000E48450FD101232A464146A01D00F0CE
:101FD0002BF9074627B1384600F0B6FA824607E0EB
:101FE0000520308004E04FF0030A01E04FF0030ABF
:101FF0005046BDE8F087000038B50025414800781C
:1020000008B1062038BD684600F00AFB012877D1E8
:102010009DF8000030B1012805D0022818D003280F
:102020006DD16BE06BE0384A38493948394B1B6851
:10203000984705465DB9364800783749097888429F
:1020400002D03348007810B9022000F007FB56E0B8
:102050002E48006800783149087001203049087026
:10206000002417E02F4810F8340000B914E02D4880
:1020700010F834002949097888420AD1294800EB30
:10208000C4002149426821480068904724490870EB
:1020900002E0641C102CE5DB00BF1D48007858B33B
:1020A0001F480078C8B10020174908801B480078F5
:1020B00040F08001144802880088401C124B1880B0
:1020C0001248006881541648027818460188008832
:1020D000401C18800D4800684254134800780128BD
:1020E00000D100BF08480288084801680A48007803
:1020F0000E4B1B689847054601E001E000BF00BF9A
:1021000000207FE702000020B2000020AC00002089
:10211000B00000201000002000000020B1000020CE
:10212000B40000202C00002001000020040000204A
:102130002DE9F04705460E46904699464FF0000AB5
:102140000FFA88F430B2002836DB06EB08001028BE
:1021500032DC304607B2B9F1000F03D0B9F1010FFC
:1021600029D115E011E0082C01DD082000E020460F
:10217000C2B2B9B2134800F0CFFA05F8010BA4F1CE
:10218000080004B207F1080007B2002CEBDC12E0F3
:102190000EE015F8013B082C01DD082000E0204688
:1021A000C2B2B9B2074800F0CDFAA4F1080004B2F7
:1021B000002CEEDC00BF01E04FF0010A5046BDE804
:1021C000F0870000DA0000202DE9F04705460C46B4
:1021D00016464FF0000937B220B200281CDBA019C8
:1021E000102819DC20461FFA80F812E0082F01DDC4
:1021F000082000E03846C2B241460A4800F08CFA96
:1022000005F8010BA7F1080007B208F108001FFA52
:1022100080F8002FEADC01E04FF001094846BDE8F4
:10222000F0870000DC000020F0B504460D460020D9
:102230002EB2002E34DBAE18082E31DC194E368853
:10224000AE1B31B213B1012B29D112E00EE0164EB4
:1022500036F81160361204F8016B134E16F811604F
:1022600004F8016B4E1C31B2561EB2B2002AEEDCED
:1022700015E011E014F8017B3E020B4F27F81160C6
:1022800014F8016B37F811703E43074F27F81160BF
:102290004E1C31B2561EB2B2002AEBDC00BF00E089
:1022A0000120F0BDD8000020C800002030B5034652
:1022B00000200DB2002D19DB8D18082D16DC0C4DF9
:1022C0002D884D1B2CB20EE00A4D35F814502D12FE
:1022D00003F8015B074D15F8145003F8015B651C0A
:1022E0002CB2551EAAB2002AEEDC00E0012030BD5F
:1022F000C6000020B600002070B504460025204628
:1023000000F0F0F900B90325284670BD70B5044609
:1023100000252046FFF7F0FF051E03D001201149DC
:1023200008701CE000F092F908B9032517E00E4888
:102330000E4908600E480F4908600F480F490860B1
:102340000F481049086000200F490860FF200F491E
:10235000087002200E4908700120024908702846C2
:1023600070BD0000020000200D24000808000020BD
:102370000F2400080C000020952300081000002006
:10238000DD230008040000201400002000000020CD
:10239000010000202DE9FC4104460D4616464FF091
:1023A0000508694601A800F08DF990B10198807880
:1023B00007020198C07807436FB90198C01D2860D3
:1023C000BDF80000C01F30804FF00008FF202070D3
:1023D00001E04FF005084046BDE8FC812DE9F047DB
:1023E00081460E4614460027F51FE01D1FFA80F8AF
:1023F000601C000A2871601C68714146284600F084
:1024000081F900B905273846BDE8F087704710B557
:1024100000F004F910BD000000BF054A128802F068
:102420004002002AF9D0C2B2014B1B1D1A8070472E
:102430000038014008B5FEF778FBFEF71FFF4FF4A8
:10244000164000F09BF8FFF7C3F9FEF76FFDFEF7AB
:102450002DFBFFF7C3F8FFF7F5F8FFF70DF9C820DC
:10246000FEF776F9FEF79AF922A0FDF7F7FE4FF492
:10247000FB70FFF74BFFC820FEF76AF9FFF72EFB52
:1024800036E003210020FEF7CBFC044621461DA0C8
:10249000FDF7E4FE04210020FEF7EAFC0446214695
:1024A0001BA0FDF7DBFE1720FEF798FC0446214633
:1024B0001BA0FDF7D3FE0F210020FEF7B1FC044660
:1024C0000E210020FEF7ACFC05460D210020FEF792
:1024D000A7FC06460C210020FEF7A2FC07462B466F
:1024E0003246394611A00094FDF7B8FEFFF784FD8F
:1024F000C7E700004D6F6462757320544350204D50
:102500006F64650053522069732025780D0A00001E
:10251000536E5F506F72742069732025780D0A0026
:102520005349522069732025780D0A00536E5F4489
:102530004950522069732025642E25642E25642E6F
:1025400025640D0A00000000014621B1012904D0D4
:10255000072906D103E0002005E0022003E0062061
:1025600001E0042000BF00BF7047000010B5024822
:102570000068804710BD00002000002010B586B024
:102580000446012144F20400FEF71AFB4FF40070E8
:10259000ADF8140003208DF8160018208DF81700F0
:1025A00005A91C48FEF7F0F94FF48060ADF814005F
:1025B00004208DF8170005A91648FEF7E5F9252037
:1025C0008DF8000003208DF801008DF80200012035
:1025D0008DF803006846FEF7AFFA01940020ADF8CD
:1025E0000800ADF80A00ADF80C00ADF810000C20A2
:1025F000ADF80E0001A90848FEF77CFF012240F269
:1026000025510548FEF750FF01210348FEF716FF4C
:1026100006B010BD000801400038014070470000BE
:1026200070B5044600250748007838B106480078A0
:102630002070002003490870012501E000F01AF81D
:10264000284670BDF5000020F4000020002002495B
:102650000870012070470000F500002001460120AD
:10266000024A10700248017001207047F5000020F6
:10267000F400002010B50F48007808B1FFF748F8C3
:102680000D48007803280CD10C490020FEF712FBFE
:1026900004460CB9002010BD094804800120FFF752
:1026A000DDFF0548007810B90020FEF791FDFF20FE
:1026B000F1E700001B010020190100205C0100204F
:1026C000F600002002460548106005480088088092
:1026D0000020034B1880FF20704700005C010020A1
:1026E000F600002070B50446002614B94FF4FB75BF
:1026F00000E025460020FEF731FDFFF779F8FF26C0
:10270000304670BD70B504460D462A46214600206D
:10271000FFF7A2F8FF2070BDF0B503460C46154642
:10272000E208A4EBC20087B20120A840401E86B296
:10273000995C501C185C41EA002139413140C8B213
:10274000F0BD00002DE9FF5F05460E469046DDF81E
:102750000CB0B8F1080F00DC04E0382213A11AA075
:10276000FDF724FEF408A6EBC4001FFA80FA0BFA6A
:102770000AF01FFA80FB012000FA08F0401E1FFA41
:1027800080F9A6EBC40009FA00F01FFA80F92F5D6A
:10279000601C285C47EA002727EA090040EA0B078B
:1027A0002F553912601C2954BDE8FF9F6D6F64627C
:1027B00075735C66756E6374696F6E735C6D62755C
:1027C00074696C732E63000075634E4269747320E4
:1027D0003C3D20380000000030313233343536378C
:1027E0003839414243444546403058003031323355
:1027F0003435363738396162636465664030780055
:1028000020280008000000203C0100006C010008A6
:10281000A02800083C01002054080000C80100085E
:10282000210229023211132D1E33080413D31C3345
:1028300008031A4F083210138D1F3308061AC120DF
:10284000321713571D33080113051B3308051A559A
:1028500018320F1AFF0829721AAB18013B180F1013
:102860000110021003100410051006100781180D46
:102870007B148E3F7B140E40B81E55400C22403C0A
:10288000010201DB2D0102030404080825060708E4
:10289000090204067629DCD12BA24AF751694E00C1
:0400000508000131BD
:00000001FF
